:020000040800F2
:10000000804E00207102000879480008512900083C
:1000100075480008690F000849B400080000000096
:1000200000000000000000000000000071790008DE
:10003000091E000800000000A14A0008C97B000852
:100040008B0200088B0200088B0200088B0200085C
:100050008B0200088B0200088B0200088B0200084C
:100060008B0200088B0200088B0200088B0200083C
:100070008B0200088B0200088B0200088B0200082C
:100080008B020008F91A00088B020008000000002B
:100090000000000000000000000000008B020008CB
:1000A0008B0200088B0200088B0200088B020008FC
:1000B0008B020008357C0008697C00088B02000870
:1000C0008B0200088B0200088B0200088B020008DC
:1000D0008B020008F98C00087590000800000000F1
:1000E0008B0200088B0200088B0200080000000051
:1000F0000000000000000000000000008B0200086B
:10010000000000007D5B00088B0200088B020008E5
:1001100000000000000000000000000000000000DF
:100120008B0200088B0200088B0200088B0200087B
:100130008B0200080000000000000000000000002A
:10014000000000000000000000000000914A0008CC
:100150008B0200088B0200081D1B00088B020008A0
:100160008B0200088B020008000000000000000065
:10017000000000000000000000000000000000007F
:10018000000000008B02000800F002F800F05CF8AC
:100190000AA090E8000C82448344AAF10107DA45E2
:1001A00001D100F051F8AFF2090EBAE80F0013F0D8
:1001B000010F18BFFB1A43F001031847C4F20000F7
:1001C000E4F200000A444FF0000C10F8013B13F079
:1001D000070408BF10F8014B1D1108BF10F8015BA0
:1001E000641E05D010F8016B641E01F8016BF9D193
:1001F00013F0080F1EBF10F8014BAD1C0C1B09D1EA
:100200006D1E58BF01F801CBFAD505E014F8016B5B
:1002100001F8016B6D1EF9D59142D6D370470000ED
:100220000023002400250026103A28BF78C1FBD8FF
:10023000520728BF30C148BF0B6070471FB50EF092
:10024000C0FF1FBD10B510BD00F05AF91146FFF7F1
:10025000F5FF0DF0DBFD00F078F903B4FFF7F2FFD6
:1002600003BC00F079F9000072B6704762B67047BF
:100270000948804709480047FEE7FEE7FEE7FEE73A
:10028000FEE7FEE7FEE7FEE7FEE7FEE70448054976
:10029000054A064B70470000CD7B00088901000825
:1002A00080480020804E0020804A0020804A0020A4
:1002B00010B54C1084EA530404D54042C1F100014A
:1002C00038BF491E1B4204D55242C3F1000338BF58
:1002D0005B1E00F059F814F0804F04D04042C1F189
:1002E000000138BF491E14F0004F04D05242C3F140
:1002F000000338BF5B1E10BD032A40F2308010F0AF
:10030000030C00F0158011F8013BBCF1020F6244B0
:1003100098BF11F801CB00F8013B38BF11F8013B41
:10032000A2F1040298BF00F801CB38BF00F8013BEE
:1003300011F0030300F0AA80083AC0F0088051F8D9
:10034000043B083A51F804CBA0E80810F5E7121D69
:100350005CBF51F8043B40F8043BAFF30080D20788
:1003600024BF11F8013B11F801CB48BF11F8012B54
:1003700024BF00F8013B00F801CB48BF00F8012B77
:10038000704770477047704753EA020C00F069806D
:100390002DE9F04B4FF00006002B1FBFB3FA83F599
:1003A00003FA05F424FA05F65E4012BF1643B2FACA
:1003B00082F502FA05F4C5F120051EBF22FA05FCFC
:1003C00044EA0C04203556EA044C4FEA144418BFA2
:1003D000641C4FF000084FF00009904271EB030CD1
:1003E00039D3002919BFB1FA81F701FA07F6B0FA3B
:1003F00080F700FA07F6C7F120071EBF20FA07FCB6
:1004000046EA0C062037B6FBF4FCA7EB0507103FC5
:1004100007F01F0BCBF120060CFA0BFB2CFA06F6AB
:1004200044BFB3460026202FA4BF5E464FF0000B0A
:100430005BEA060C08BF4FF0010B19EB0B09ABFB95
:10044000027C48EB0608C01B06FB02CC0BFB03CC6E
:1004500071EB0C01C1E70B46024641464846BDE838
:10046000F08B13B54FF000004FF00001AFF30080A8
:10047000BDE81C40704710B500F03AF8006810BDA8
:1004800010B5044600F034F8046010BD10B5203AF1
:10049000C0F00B80B1E81850203AA0E81850B1E83D
:1004A0001850A0E81850BFF4F5AF5FEA027C24BFF3
:1004B000B1E81850A0E8185044BF18C918C0BDE8EA
:1004C00010405FEA827C24BF51F8043B40F8043BB3
:1004D00008BF7047D20728BF31F8023B48BF11F868
:1004E000012B28BF20F8023B48BF00F8012B7047C2
:1004F000004870471C480020004870471C480020F6
:100500007546FFF7F9FFAE4605006946534620F0F1
:100510000700854618B020B5FFF7B8FEBDE82040BB
:100520004FF000064FF000074FF000084FF0000BAF
:1005300021F00701AC46ACE8C009ACE8C009ACE862
:10054000C009ACE8C0098D4670470446AFF300808F
:100550002046FFF782FE000001491820ABBEFEE7EF
:10056000260002007047000010B50446062C4CD24D
:10057000DFE804F0030F1B27333F002000F030FBBF
:100580002349088021462248B0F9000008F038FAD3
:100590003CE0002000F024FB1E49088021461D4855
:1005A000B0F9000008F02CFA30E0012000F018FB50
:1005B0001949088021461848B0F9000008F020FACF
:1005C00024E0012000F00CFB144908802146134868
:1005D000B0F9000008F014FA18E0022000F000FB67
:1005E0000F49088021460E48B0F9000008F008FACB
:1005F0000CE0022000F0F4FA0A490880214609487C
:10060000B0F9000008F0FCF900E000BF00BF10BD29
:10061000D0010020D2010020D4010020D60100200A
:10062000D8010020DA01002010B54C49B1F90010C2
:100630004B4AB2F90020881800EBD071491009B27A
:10064000484A11844849B1F90010484AB2F90020DB
:10065000881800EBD071491009B2424A51844449CC
:10066000B1F90010434AB2F90020881800EBD071AC
:10067000491009B23B4A91843948B0F9000000EEB4
:10068000100AF8EEC00A3548B0F9000000EE100A72
:10069000B8EEC00A30EEC00ADFED370A80EE801AED
:1006A000B0EE000A21EE000A104680ED0A0A2F483B
:1006B000B0F9000000EE100AF8EEC00A2A48B0F9BE
:1006C000000000EE100AB8EEC00A30EEC00A9FED3E
:1006D0002A1AC1EE000AB0EE000A20EE800A104687
:1006E00080ED0B0A2348B0F9000000EE100AF8EE86
:1006F000C00A1F48B0F9000000EE100AB8EEC00AA8
:1007000070EEC00A9FED1C1A81EE200AF0EE000A7E
:1007100020EE200A104680ED0C0A008C1749088054
:100720001046408C164908801046808C1549088078
:10073000104690ED0A0A144880ED000A104690ED2C
:100740000B0A124880ED000A104690ED0C0A104882
:1007500080ED000A0AF092FE10BD0000D0010020DA
:10076000D201002048060020D4010020D60100203C
:10077000D8010020DA01002000000046B40100206A
:10078000B6010020B8010020C0010020C4010020F3
:10079000C801002000B58BB001214FF4E06004F0E7
:1007A000ABFC00200190049003904FF48030029045
:1007B00001A800F035F80020059001208DF8180000
:1007C0008DF81900002007900890099001208DF8FD
:1007D000280005A90B4800F09FF8072301221146C5
:1007E000084800F0C3F80121064800F03CF8012158
:1007F000044800F009F80121024800F029F80BB084
:1008000000BD00000020014021B1826842F00102D9
:10081000826003E0826822F001028260704700007B
:100820000021084A1168084A1140D0E900231A4300
:1008300083681A43C3681A431143044AC2F8041375
:100840007047000004230140E030FCFF002001401D
:1008500021B1826842F48072826003E0826822F4EF
:1008600080728260704721B1826842F400728260B7
:1008700003E0826822F400728260704700B58FB096
:100880000121880504F0F8FB002000901248019037
:1008900012480290002003900A2004900020059046
:1008A0004FF480600690400007908000089040114F
:1008B000099040020A9000200B9001200C9000202B
:1008C0000D900E906946064801F072FA0121044825
:1008D00001F050F90FB000BD4C200140A0070020EE
:1008E000106402401CB50121084604F0C5FB01203C
:1008F0008DF805000220009003208DF804000120EF
:100900008DF8050000208DF807006946014801F0C8
:1009100013FF1CBD0000024030B50246002000233A
:100920005068104C20400D790C6844EA052420439F
:10093000506090680C4C2040D1E903542C438D68E2
:100940002C434D7944EA450420439060D06A20F45A
:1009500070000C7D641EE4B2234340EA0350D06271
:1009600030BD0000FFFEFFFCFDF7FFC0F0B5044600
:100970000D4600200021092D11DDE068A5F10A06D1
:1009800006EB4607072606FA07F18843A5F10A0693
:1009900006EB460603FA06F10843E0600CE0206926
:1009A00005EB4507072606FA07F1884305EB4506E0
:1009B00003FA06F108432061072A0FDA606B561E1E
:1009C00006EB86071F2606FA07F18843561E06EB3C
:1009D000860605FA06F10843606322E00D2A0FDA65
:1009E000206BD61F06EB86071F2606FA07F1884301
:1009F000D61F06EB860605FA06F10843206310E0D1
:100A0000E06AA2F10D0606EB86071F2606FA07F13B
:100A10008843A2F10D0606EB860605FA06F10843A7
:100A2000E062F0BD816841F0804181607047000064
:100A300010B5FFF757FFFFF721FFFFF7ABFE0248A6
:100A4000FFF7F0FF10BD0000002001400346002228
:100A5000002103E033F911000244491C0A29F9DBA3
:100A60000A2092FBF0F210B270470000FEB500259C
:100A700000260027002029490880294908802949A3
:100A80000880012028490870C820284908600024EF
:100A900006E064200CF02AFA684600F059F9641C5C
:100AA0000A2CF6D300240FE0C8200CF01FFA684689
:100AB00000F04EF9BDF906000544BDF908000644F2
:100AC000BDF90A000744641C42F210708442EBD363
:100AD00097FBF0F000B21349088042F2107095FBCA
:100AE000F0F000B20D49088042F2107096FBF0F071
:100AF00000B20B490880094800880D4988800848E1
:100B00000088C8800748008808810AF0B7FC0020E8
:100B10000549087005490860FEBD0000BA010020C3
:100B2000BC010020BE010020A401002034040140CB
:100B300048060020024A127820F812107047000080
:100B4000B201002010B51021074801F069FE802095
:100B500006F004FDFF2006F001FD044610210248C6
:100B600001F060FE204610BD0000024070B5054651
:100B70001021084801F054FE802006F0EFFCFF2011
:100B800006F0ECFC04461021024801F04BFE204622
:100B900070BD00000000024000200B4908800B4996
:100BA00008800B490880B7EE000A0A4880ED000A69
:100BB000B7EE000A084880ED000AB7EE000A0748C1
:100BC00080ED000A70470000B4010020B60100204B
:100BD000B8010020C0010020C4010020C80100208D
:100BE0002DE9FE430446002500260027C8201C49A5
:100BF00008604FF0000813E04FF4FA700CF076F93B
:100C0000684600F0A5F8BDF900000544BDF90200F2
:100C10000644BDF90400074408F101001FFA80F8FA
:100C2000B8F5FA6FE8DB34B94FF4FA6095FBF0F0F1
:100C300000B2BDE8FE83012C05D14FF4FA6096FBAB
:100C4000F0F000B2F5E7022C05D14FF4FA6097FB03
:100C5000F0F000B2EDE700200149086000BFE8E7CE
:100C60003404014010B5FFF76DFF012170200DF035
:100C700079FA292140200DF075FA032141200DF069
:100C800071FA292142200DF06DFA032143200DF065
:100C900069FA00216C200DF065FA11217E200DF01B
:100CA00061FA0A200CF004F915217E200DF05AFAA1
:100CB0000A200CF0FDF818217E200DF053FA0A20CE
:100CC0000CF0F6F80320FFF751FF1748808800B2B8
:100CD000164908801448C08800B215490880124897
:100CE000008900B2134908800F48008C124908801F
:100CF0000D48408C114908800B48808C10490880B1
:100D0000094890ED0A0A0F4880ED000A064890ED68
:100D10000B0A0D4880ED000A034890ED0C0A0B48C1
:100D200080ED000A10BD000048060020BA01002036
:100D3000BC010020BE010020B4010020B60100204B
:100D4000B8010020C0010020C4010020C80100201B
:100D50002DE9F04786B004461021704801F060FD8F
:100D600001AA0F210C2006F011FC10216B4801F0A4
:100D700059FD9DF8120000049DF8111040EA012071
:100D80009DF810100843664908609DF804009DF81E
:100D9000052040EA022001B26248FFF7CBFE9DF831
:100DA00006009DF8072040EA022001B25D48143099
:100DB000FFF7C0FE9DF808009DF8092040EA0220D8
:100DC00001B258482830FFF7B5FE9DF80A009DF89B
:100DD0000B2040EA022001B252483C30FFF7AAFE45
:100DE0009DF80C009DF80D2040EA022001B24D480C
:100DF0005030FFF79FFE9DF80E009DF80F2040EA4F
:100E0000022001B247486430FFF794FE464800785C
:100E1000401C0A2190FBF1F201FB120042490870CC
:100E20004048FFF713FE80463E481430FFF70EFEA1
:100E300081463C482830FFF709FE82463B4800883F
:100E4000A8EB000000B2E08039480088A9EB000060
:100E500000B2208137480088AAEB000000B2608110
:100E6000E088354908802089344908806089344900
:100E700008802C483C30FFF7E9FD054629485030F2
:100E8000FFF7E4FD064627486430FFF7DFFD07461D
:100E90002C48B0F90000281A00EE100AB8EEC00A7B
:100EA0002948D0ED000A20EE200ABDEEC00A10EE5F
:100EB000100A05B22548B0F90000301A00EE100AF9
:100EC000B8EEC00A2248D0ED000A20EE200ABDEE9E
:100ED000C00A10EE100A06B21E48B0F90000381A17
:100EE00000EE100AB8EEC00A1B48D0ED000A20EE52
:100EF000200ABDEEC00A10EE100A07B225806680F7
:100F0000A780208815490880608815490880A08836
:100F10001449088006B0BDE8F087000000000240D8
:100F2000CC010020B4070020B2010020BA0100204B
:100F3000BC010020BE010020A6010020A801002065
:100F4000AA010020B4010020C0010020B601002049
:100F5000C4010020B8010020C8010020AC0100201D
:100F6000AE010020B001002000BFFEE770B50025F3
:100F70004FF4803404E0802004F0ECFD00B103E085
:100F80002000A4F10104F6D100BF0CB9032070BD0C
:100F900040F2FF5004F0B0FD2846F8E770B5044673
:100FA00005E01648056805F0450000B100E0F8E7E7
:100FB00000BF042004F0CEFD20B1042004F09CFD0D
:100FC000032070BD012004F0C5FD20B1012004F014
:100FD00093FD0120F5E7094824380068A04201D0BC
:100FE0001020EEE740F2FF5004F086FD0348203861
:100FF000006808210840C0B2E3E70000342C01403B
:1010000070B500264FF4803505E01148046804F0FF
:10101000450000B103E02800A5F10105F5D100BFAE
:1010200015B104F0040028B10326042004F064FD87
:10103000304670BD012004F08DFD18B1012601205D
:1010400004F05AFD40F2FF5004F056FD3046F0E740
:10105000342C014010B505E00B48046804F045004D
:1010600000B100E0F8E700BF042004F073FD20B1F8
:10107000042004F041FD032010BD40F2FF5004F0B5
:101080003BFD0020F8E70000342C01402DE9F04141
:1010900005460E464FF0000805E02048076807F0B7
:1010A000450000B100E0F8E700BF042004F052FD65
:1010B00028B1042004F020FD0320BDE8F0810120C8
:1010C00004F048FD20B1012004F016FD0120F4E7F2
:1010D000124824380068A84201D01020EDE740F201
:1010E000FF5004F009FD0D482038046804F4604006
:1010F00018B9200C30804046DFE704F4005008B1F6
:101100001320DAE704F4804008B11020D5E704F496
:10111000004008B10F20D0E74046CEE7342C014014
:1011200070B500264FF4803505E00F48046804F0E0
:10113000450000B103E02800A5F10105F5D100BF8D
:1011400015B104F0040028B10326042004F0D4FCF7
:10115000304670BD04F0400018B10026402004F075
:10116000CBFC3046F5E70000342C014038B504468E
:10117000206940680090009820F00200801C0090D8
:10118000009920694160032009F0C4F938BD70B5A9
:1011900006460C4604F08000802808D104F07F0049
:1011A00000EB800106F58E7000EBC10507E004F04E
:1011B0007F0000EB800106F55D7000EBC10504F0D7
:1011C0007F00287004F08000C0096870294630460E
:1011D00009F01AFD002070BD70B506460C4604F0FB
:1011E0008000802808D104F07F0000EB800106F524
:1011F0008E7000EBC10505E004EB840106F55D701F
:1012000000EBC1050020A87004F07F002870C4F333
:10121000C01068702946304609F0CEFC002070BD31
:1012200070B505460C4604F08000802805D104F016
:101230007F01284609F0E2FE02E0284609F0B8FEE8
:10124000002070BD2DE9F04106460D4690461F4630
:1012500005F08000802808D105F07F0000EB8001B8
:1012600006F58E7000EBC10407E005F07F0000EB8F
:10127000800106F55D7000EBC10405F07F00207071
:1012800005F08000C0096070C4F80880E7706078DD
:1012900008B12078E080022F01D100202071214682
:1012A000304609F03DFC0020BDE8F0812DE9F04119
:1012B00005460E461746984606F07F0000EB800173
:1012C00005F55D7000EBC104E760C4F814800020F0
:1012D000A061607006F07F002070E878012800D1DE
:1012E0002761207820B92146284609F03DFB03E01C
:1012F0002146284609F0E9FC0020BDE8F08108B548
:1013000000220092009A61F30A12009202691268A8
:10131000009B1A4303691A6008BD70B506460C4667
:1013200004F08000802808D104F07F0000EB8001E9
:1013300006F58E7000EBC10505E004EB840106F5AF
:101340005D7000EBC1050120A87004F07F002870DB
:10135000C4F3C01068702946304609F084FC0020B0
:1013600070BD2DE9F04107460D461646984605F03A
:101370007F0000EB800107F58E7000EBC1040120B7
:10138000607005F07F002070E66026610020A0619B
:10139000C4F81480207820B92146384609F0E4FAD0
:1013A00003E02146384609F090FC0020BDE8F081BA
:1013B0001CB50446204609F0A2FAE068C068009017
:1013C000204609F045FE03280BD10020A0704FF401
:1013D0000070A080009820F4705000F5105000902C
:1013E00009E00120A0704020A080009820F47050F7
:1013F00000F5A05000900098E168C86000200190BE
:10140000019820F4005000F5005001900198E16827
:10141000486101201CBD0000F8B5054600240020ED
:101420000090284609F053FE064690E006F00100C1
:1014300000287DD0E1B2284600F002FB0090009821
:1014400000F0010030B3012000FA04F72869406B76
:10145000B8432969486300200090009820F00100FB
:10146000401C009005F1180050F82400009981609C
:10147000E1B239480068426828469047E878012878
:1014800008D13CB940F21110405D042802D1284631
:1014900009F015FB0098C0F3C00060B10020009077
:1014A000009820F008000830009005F1180050F86E
:1014B0002400009981600098C0F3001060B1002002
:1014C0000090009820F010001030009005F11800F6
:1014D00050F82400009981600098C0F3801060B13A
:1014E00000200090009820F040004030009005F16E
:1014F000180050F82400009981600098C0F3400063
:1015000060B100200090009820F00200801C009044
:1015100005F1180050F82400009981600098C0F38C
:10152000C01028B12146284600F09EFA002000E0B5
:101530000BE00090009820F080008030009005F1D2
:10154000180050F8240000998160641C7608002E71
:101550007FF46CAF0120F8BD940400207CB50446F4
:10156000002500200190204609F0B9FD06466FE0F5
:1015700006F00100002869D0E9B2204609F0B7FD65
:101580000190019800F00100C8B30020019001987B
:1015900020F00100401C019004F1540050F8250097
:1015A00001998160E078012817D104F1540050F8C6
:1015B00025000069009005EB850104F55D7000EBE6
:1015C000C10080680099C1F31201411A05EB850240
:1015D00004F55D7000EBC2008161E9B21E4800684D
:1015E000026820469047E078012808D13DB940F2D2
:1015F0001110005D052802D1204609F060FA01981B
:10160000C0F3400060B100200190019820F002007A
:10161000801C019004F1540050F82500019981606C
:101620000198C0F3C00088B10B480068816820466B
:10163000884700200190019820F0080008300190B0
:1016400004F1540050F82500019981606D1C760862
:10165000002E8DD101207CBD940400203EB50446AF
:10166000A07A70B1D4F80C010090009820F002002C
:101670000090009820F0010000900099D4F80C012F
:10168000016000200190019820F00100401C0190B1
:1016900020694068019988432169486008480068CA
:1016A00081692046884700200290029820F000407F
:1016B00000F1004002900298E168486101203EBDBF
:1016C000940400207CB5044600200190019820F08D
:1016D000100010300190E068806901998843E1684A
:1016E0008861E068006A0090009800F00F0000EB4D
:1016F000800104F55D7000EBC1050098C0F3434024
:1017000007282DD2DFE800F02C04051D1E2C1F0039
:1017100027E00098C0F30A1090B10098C0F30A12B5
:101720002046E96809F0EDFCE8680099C1F30A1168
:101730000844E860A8690099C1F30A110844A86147
:101740000FE00EE00DE0082204F2CC51204609F033
:10175000D8FCA8690099C1F30A110844A86100E007
:1017600000BF00BFE068806901990843E1688861B3
:1017700001207CBD38B5044608480068C168204691
:10178000884700200090009820F008000830009062
:101790000098E1684861012038BD000094040020F1
:1017A0001FB50446002000904FF48970005D009042
:1017B0002348006841692046884720698068019075
:1017C00000200390039820F4006000F5006003906F
:1017D0000398E1684861A07A70B3019800F00100B5
:1017E00050B340F21510005D012825D19DF800008E
:1017F000032821D100200290029820F00100401C13
:101800000290D4F80C01006802990843D4F80C1136
:101810000860029820F00200801C0290D4F80C01AD
:10182000006802990843D4F80C1108600548006864
:1018300040F0060003490860012004B010BD00001C
:101840009404002010ED00E030B587B0044600207D
:10185000029006900590049003900190029820F069
:101860000100401C02902069406802998843216968
:1018700048600021204609F0C1FB00250BE0FF2154
:1018800004F1180050F82500816004F1540050F86C
:10189000250081606D1C6078A842F0D84FF0FF31C0
:1018A0002069816106986FF30F00401C069006982E
:1018B00080B200F58030069006992069C1610598D4
:1018C00020F0080008300590059820F00100401C29
:1018D0000590059820F00200801C0590059920696C
:1018E0004161049820F00100401C0490049820F00D
:1018F000080008300490049820F00200801C049036
:10190000049920690161206900680390039820F41C
:10191000FE600390039920690160204609F0CFF82A
:1019200000200190019820F4805000F58050019033
:101930000198E168486104480068016920468847C9
:10194000012007B030BD0000940400202DE9F041D3
:1019500006460F463946304609F0E8FB01214FF4B0
:10196000897081550021801C8155002511E005EB0F
:10197000850106F58E7000EBC104012060702570B2
:10198000E5800020E0704020A0600020E060606101
:101990006D1C7078A842EAD8002510E005EB85019F
:1019A00006F55D7000EBC104002060702570E580D5
:1019B000E0704020A0600020E06060616D1C7078E5
:1019C000A842EBD8304608F089FF304608F0B6FD53
:1019D0000021304609F012FC304608F042FE304645
:1019E00009F0D5FABDE8F08138B504460020009032
:1019F00007480068C16920468847009820F4801095
:101A000000F5801000900098E1684861012038BD21
:101A10009404002038B50446002000900748006870
:101A2000016A20468847009820F4001000F5001055
:101A300000900098E1684861012038BD94040020BE
:101A400030B5024615692B6915696C6B24FA01F5EE
:101A500005F0010543EAC51302F1180555F82150B8
:101A6000AD6805EA030030BD2DE9F84307460E4690
:101A700000250020009006EB860107F58E7000EB34
:101A8000C104D4E90501451AA068A84200D2A5689E
:101A9000E81C4FEA900807F1180050F8260080690A
:101AA00000901BE0D4E90501451AA068A84200D2C5
:101AB000A568E81C4FEA9008ABB2F2B23846E1687C
:101AC00009F0C3FBE0682844E060A0692844A061F5
:101AD00007F1180050F8260080690090009880B245
:101AE000404506D9D4E90510884202D26069002831
:101AF000D8D10120BDE8F88310B50649064800F0AA
:101B000007F928B10349044800F01AF807F0B2F9C0
:101B100010BD000000802020A060024010B50649E2
:101B2000064800F0F5F828B10349044800F008F829
:101B300006F0E2FF10BD000000800028B8640240FB
:101B40000246094B9A4201D2084801E00648103883
:101B500001F000531BB1064B0B40C36002E0044B85
:101B60000B40836070470000106402400060024038
:101B70007D0F7D0F21B1026842F00102026003E097
:101B8000026822F00102026070470000016821F043
:101B9000010101600021016041608160C16001615B
:101BA000212141614A49884204D13D21484A103AE5
:101BB00091608CE046491831884205D14FF4746138
:101BC000434A103A916082E041493031884205D160
:101BD0004FF474113E4A103A916078E03C49483124
:101BE000884205D14FF07461394A103A91606EE035
:101BF00037496031884204D13649354A103AD160BC
:101C000065E033497831884204D13349304A103A8B
:101C1000D1605CE02E499031884204D12F492C4A92
:101C2000103AD16053E02A49A831884205D14FF0DB
:101C30003D51274A103AD16049E02949884204D1F0
:101C40003D21274A083A116041E025491831884270
:101C500005D14FF47461224A083A116037E02049F7
:101C60003031884205D14FF474111D4A083A116091
:101C70002DE01B494831884205D14FF07461184A64
:101C8000083A116023E016496031884204D11149B5
:101C9000134A121F11601AE011497831884204D1A9
:101CA0000D490F4A121F116011E00D499031884211
:101CB00004D10A490A4A121F116008E00849A831F4
:101CC000884204D14FF03D51054A121F1160704700
:101CD000106002403D000020400F002000003D2029
:101CE0001064024021B1026842F02002026003E069
:101CF000026822F0200202607047014600200A6854
:101D000002F001020AB1012000E00020704700004B
:101D100070B50246002000240025124EB24201D2C6
:101D2000114B01E00F4B103B104E0E4036B11E26FA
:101D300006EAD124166806EA040502E0566906F0B0
:101D4000800501F000560EB15C6800E01C68084E8A
:101D5000344004EA010616B10DB1012000E0002074
:101D600070BD000010640240006002403C0F3C0F58
:101D70007D0F7D0F10B501F080034BB122B1436997
:101D800043F08003436103E0436923F08003436130
:101D900080290BD02AB1036801F01E04234303609D
:101DA00004E0036801F01E04A343036010BD0000BB
:101DB00010B500220268134B1A40CC680B6823430D
:101DC0004C6923438C692343CC6923430C6A234326
:101DD0004C6A23438C6A23434C6B23438C6B234311
:101DE0001A430260426922F00702D1E90B3423430F
:101DF0001A4342610B6943604B6883608B68C36020
:101E000010BD00003F801CF07047000010B500249A
:101E100005E0601C80B20446642800DD10BD04F0BB
:101E2000F3F80028F5D101200A490870002406E0E3
:101E3000012209A109480BF099FA064908700548E2
:101E4000007820B12046611C8CB26428F0DB00BF12
:101E5000E4E7000030020020303A00007008002063
:101E60001FB504460121042003F026F942F2107048
:101E700090FBF4F0401E019042F2CF00ADF800005C
:101E80000020ADF80800ADF8020069460F4806F0E2
:101E9000D5F9012211460D4806F0DDF81E208DF817
:101EA0000C0001208DF80D008DF80E008DF80F004C
:101EB00003A802F021FD00200449243108600348F2
:101EC000008840F00100014908801FBD0008004063
:101ED00070B5234804782348007800283ED0224873
:101EE000007884421ADC20480078C0EB001000EB38
:101EF00040051D4A1278C2F11402C2EB021202EB35
:101F0000420291B2194A50190CF0FEF8C4EB0410C9
:101F100000EB400115480CF0F7F812E01248007889
:101F2000C0EB001000EB40050F480078261AC6EB06
:101F3000061202EB420291B20C4A50190CF0E4F87E
:101F400000BF0948047006480078844203D001208D
:101F50000449087002E000200249087070BD0000CA
:101F600046020020440200204502002051110020BA
:101F700070B50026102420121349087008464470DA
:101F8000640220128870CC7040F242442012087122
:101F90004C7100BF002505E00B48405D304486B21F
:101FA000681C85B2062DF7DB07498E7107210648AC
:101FB0000CF0AAF80020054908700548006810B91F
:101FC00064200349086070BD2411002044020020F1
:101FD000340200202DE9FC4107460D46002600246E
:101FE00000200090019008205B49086010204860A4
:101FF000402088600020C8604FF480600861084677
:1020000003F0F4FD1020FEF7C9FF044614B120468A
:10201000BDE8FC815148008800044F490860372022
:102020004860402088600020C8604FF480600861EC
:10203000084603F0DBFD3720FEF7B0FF04460CB185
:102040002046E5E74FF0FF3045490860082048602A
:10205000302088600220C8600020086101204861AB
:10206000084603F05DFD00203B49086033204860CE
:10207000402088600020C8604FF4806008610846F6
:1020800003F0B4FD3320FEF789FF04460CB120466F
:10209000BEE70CE04FF4001003F05CFD38B13148AE
:1020A00000684DF82600761C022E00D307E02D486C
:1020B0004C38006840F22A6108400028EAD000BF8E
:1020C000082003F047FD20B1082003F015FD04208F
:1020D0009EE7022003F03EFD20B1022003F00CFD3C
:1020E000022095E7202003F035FD20B1202003F0E9
:1020F00003FD06208CE74FF4007003F02BFD28B1A0
:102100004FF4007003F0F8FC072081E740F2FF5025
:1021100003F0F2FC00980006009901F47F4140EAC8
:102120000120009901F47F0140EA1120009940EA62
:102130001160686001980006019901F47F4140EA4E
:102140000120019901F47F0140EA1120019940EA40
:102150001160286020465BE700150020580200202F
:1021600014150020802C014000B52DED108B93B08C
:10217000F0EE408AB0EE609AF0EE419AB0EE61BAAD
:10218000B0EE42AAF0EE62AAFE4890ED000AD0ED51
:10219000000A20EE200A8DED110A90ED000AFA489F
:1021A000D0ED000A20EE200A8DED100AF54890EDE2
:1021B000000AF648D0ED000A20EE200A8DED0F0A45
:1021C000F04890ED000AF248D0ED000A20EE200A17
:1021D0008DED0E0AEC4890ED000AD0ED000A20EEDD
:1021E000200A8DED0D0A90ED000AE848D0ED000AB6
:1021F00020EE200A8DED0C0AE34890ED000AE44839
:10220000D0ED000A20EE200A8DED0B0ADF4890ED9C
:10221000000AD0ED000A20EE200A8DED0A0A90EDAA
:10222000000ADB48D0ED000A20EE200A8DED090AF5
:1022300090ED000AD0ED000A20EE200A8DED080A8C
:102240006BEE0B0A4AEE0A0A4AEEAA0AB0EE600AE0
:102250000BF06EFDB0EE408A2BEE080AB0EE40BAED
:102260002AEE080AB0EE40AA2AEE880AF0EE40AA4A
:102270009DED0B0ADDED0F0A30EE600AF0EE000A6C
:1022800020EE200AB0EE40FA9DED100ADDED090ABD
:1022900030EE200AF0EE000A20EE200AF0EE40FABE
:1022A0009DED110ADDED0D0A70EE600A9DED0A0A42
:1022B00070EEC00A9DED080A30EE800A8DED120A1C
:1022C0009DED120A2AEE000A0AEEEF0AB0EE40DA9D
:1022D0006AEE8F0A9DED120A4BEE400AF0EE60DACC
:1022E0002BEE2F0A0AEE4F0AB0EE40EAB5EEC0DA46
:1022F000F1EE10FA7ED0F5EEC0DAF1EE10FAF9D078
:10230000B5EEC0EAF1EE10FAF4D09FEDA20A2DEE80
:10231000000A10EE101A08460CF0B2FECDE90001DA
:102320009D4890ED000B53EC102B9DED000B51ECF4
:10233000100B0CF0AFFBCDE90401984890ED000ABA
:1023400010EE100A0CF09CFECDE902019DED040B8D
:1023500053EC102B9DED020B51EC100B0CF032F9ED
:10236000CDE906019DED060B51EC100B0CF0F8F8D1
:1023700000EE100A894880ED000A9FED860A2DEED6
:10238000800A10EE101A08460CF07AFECDE9000122
:10239000814890ED000B53EC102B9DED000B51ECA0
:1023A000100B0CF077FBCDE904017D4890ED000A9D
:1023B00010EE100A0CF064FECDE902019DED040B55
:1023C00053EC102B9DED020B51EC100B0CF0FAF8B6
:1023D000CDE906019DED060B51EC100B0CF0C0F899
:1023E00000EE100A6E4880ED000A9FED6A0A2EEE9C
:1023F000000A00E05AE010EE101A08460CF040FE09
:10240000CDE90001644890ED000B53EC102B9DEDDD
:10241000000B51EC100B0CF03DFBCDE904016148C1
:1024200090ED000A10EE100A0CF02AFECDE9020130
:102430009DED040B53EC102B9DED020B51EC100B9A
:102440000CF0C0F8CDE906019DED060B51EC100B28
:102450000CF086F800EE100A524880ED000AF1EE0A
:10246000040AB0EE680A00EE8D0A4C48D0ED000A6E
:1024700030EE200AF0EE408AF1EE040AB0EE490A8E
:1024800000EEAD0A4648D0ED000A30EE200AB0EE6C
:10249000409AF1EE040AB0EE690A00EE8E0A414855
:1024A000D0ED000A30EE200AF0EE409A364890ED6A
:1024B000000AB1EE400A20EE280A3448D0ED000AA6
:1024C00000EEC90A3248D0ED000A00EEE90A10EE2B
:1024D000101A08460CF0D4FDCDE900012E4890ED0D
:1024E000000B53EC102B9DED000B51EC100B0CF07E
:1024F000D1FACDE90401234890ED000A10EE100A4C
:102500000CF0BEFDCDE902019DED040B53EC102B48
:102510009DED020B51EC100B0CF054F8CDE90601C7
:102520009DED060B51EC100B0CF01AF80EEE900A14
:10253000144890ED000A20EE280A1448D0ED000A55
:1025400000EEA90A1248D0ED000A00EEC90A10EE0A
:10255000101A08460CF094FDCDE900010E4890EDEC
:10256000000B53EC102B9DED000B51EC100B0CF0FD
:1025700091FACDE90401044890ED000A10EE100A2A
:1025800012E0000074010020780100207C0100208E
:102590008001002000000000880100205001002080
:1025A00054010020580100200CF06AFDCDE9020121
:1025B0009DED040B53EC102B9DED020B51EC100B19
:1025C0000CF000F8CDE906019DED060B51EC100B67
:1025D0000BF0C6FF0BEE900A524890ED000A20EE79
:1025E000090A5148D0ED000A00EEE90A4F48D0ED43
:1025F000000A00EEA80A10EE101A08460CF040FD82
:10260000CDE900014A4890ED000B53EC102B9DEDF5
:10261000000B51EC100B0CF03DFACDE904014548DC
:1026200090ED000A10EE100A0CF02AFDCDE902012F
:102630009DED040B53EC102B9DED020B51EC100B98
:102640000BF0C0FFCDE906019DED060B51EC100B20
:102650000BF086FF0CEE100A324890ED000A20EED7
:10266000290A3148D0ED000A00EE890A3148D0ED40
:10267000000A00EEE80A10EE101A08460CF000FD01
:10268000CDE900012A4890ED000B53EC102B9DED95
:10269000000B51EC100B0CF0FDF9CDE904012348BF
:1026A00090ED000A10EE100A0CF0EAFCCDE90201F0
:1026B0009DED040B53EC102B9DED020B51EC100B18
:1026C0000BF080FFCDE906019DED060B51EC100BE0
:1026D0000BF046FF0CEE900A6EEEAE0A4BEEAB0A24
:1026E0004CEE0C0A4CEEAC0AB0EE600A0BF020FB8C
:1026F000B0EE408A2EEE880A0A4880ED000A2BEEE2
:10270000880A094880ED000A2CEE080A094880ED85
:10271000000A2CEE880A054880ED000A13B0BDECD3
:10272000108B00BD74010020780100208001002082
:10273000880100207C010020F0B50A46002100231A
:10274000002400BF3DE0012505FA01F3156805EA04
:1027500003049C4234D105684F000326BE40B543B4
:10276000056015794E00B54006683543056015795A
:10277000012D02D01579022D16D185684F00032650
:10278000BE40B543856055794E00B54086683543F7
:102790008560456801268E40B54345604568967959
:1027A0008E40B6B235434560C5684F000326BE4033
:1027B000B543C560D5794E00B540C6683543C560A0
:1027C000491C1029BFD3F0BDF0B5002300244D07EC
:1027D000ED0E02FA05F3CE1000F1200555F8265053
:1027E0004E07F70E0F26BE40B543CF1000F120066E
:1027F00046F82750CE1000F1200555F8265045EA3E
:102800000304CE1000F1200545F82640F0BD024635
:10281000002013690B400BB1012000E0002070473D
:102820004183704701837047DFED1B0AB0EE600AF9
:1028300000210BE0194830F8110000EE900AF8EE84
:10284000600A70EE800AB0EE600A491C0A29F1DBCA
:10285000F2EE040A80EE201AB0EE410ADFED100A13
:1028600060EE200A9FED0F1AC0EE811AB0EE610AE9
:10287000F2EE060A60EE200AB0EE600AFDEEC00A33
:1028800010EE900A00B2084A1080FDEEC00A10EE69
:10289000900A00B27047000000000000A00700206E
:1028A0000000A54300008045980100207FB5044644
:1028B00022A30FCB8DE80F002448C08B42F2107189
:1028C00090FBF1F201FB12004FF47A7190FBF1F0F2
:1028D0003030C0B28DF805001C48C08B90FBF1F27F
:1028E00001FB1200642190FBF1F03030C0B28DF892
:1028F00006001648C08B90FBF1F201FB12000A2182
:1029000090FBF1F03030C0B28DF807000F48C08B5B
:1029100090FBF1F201FB12003030C0B28DF80800DC
:10292000002504E01DF805002070641C6D1C0D2DB1
:10293000F8DB0020207002F025F87FBD2F414852BF
:1029400053303030312E7478740000004806002077
:1029500000BFFEE770B505460E46002400F0ECF817
:10296000284600F0B7F8641C00F032F9304600F059
:10297000B1F8641C00F02CF900F0DEF8691CC8B254
:1029800000F0A8F8641C00F023F9002000F06CF8B7
:10299000044600F0F7F8204670BD000010B5002096
:1029A0000E4908600E48006820F440400C49086059
:1029B0000846006840F48040086000200949C1F8DA
:1029C0009C0201200AF092FA0120044908600AF0F2
:1029D0008DFA00200349C1F8980210BD9882404248
:1029E00000040240008040421CB50121022002F098
:1029F00043FBC020009001208DF8040002208DF8D8
:102A0000050000208DF806008DF807006946024891
:102A1000FFF792FE1CBD00000004024010B500202C
:102A20000E4908600E48006820F440400C490860D8
:102A30000846006840F48040086001200949C1F858
:102A40009C020AF053FA0120044908600AF04EFA89
:102A500000200449C1F8980210BD0000988240424D
:102A6000000402400080404270B50546002416482C
:102A7000006820F440401449086008460068086077
:102A8000002616E000201149086001200AF02EFA05
:102A900001200F49C1F898026006040E0B487C38EB
:102AA000006808B1601CC4B201200AF01FFA701C53
:102AB000C6B2082EE6DB15B1FFF770FF01E0FFF7A5
:102AC000ADFF204670BD00000004024098824042E5
:102AD0000080404270B504461448006820F440402D
:102AE000124908600846006840F4804008600020F1
:102AF0000F490860002516E0E0090D49091D08602E
:102B00006006040E01200AF0F1F901200949C1F81C
:102B100098020AF0EBF900200549086001200AF04C
:102B2000E5F9681CC5B2082DE6DB70BD0004024063
:102B3000988240420080404210B50F48006820F45F
:102B400040400D4908600846006840F48040086035
:102B500001200A4908600A49C1F8980202200AF0D7
:102B6000C5F900200549086002200AF0BFF90020DD
:102B70000349C1F8980210BD000402409C82404203
:102B80000080404210B50F48006820F440400D49D5
:102B900008600846006840F48040086000200A4948
:102BA00008600A49C1F89C0202200AF09FF901203E
:102BB000054908600549C1F89C0202200AF096F90F
:102BC00010BD000000040240988240420080404254
:102BD00010B500241748006820F4404015490860EB
:102BE0000846006808600120134908600AF07EF971
:102BF00001201249C1F898020AF078F910E0601C2F
:102C0000C4B2322C09DDFFF7BDFF0D480088401C1F
:102C100000B20B490880012010BD01200AF066F9BE
:102C20000548803800680028E9D10349091F086079
:102C300000BFF1E7000402409C8240420080404215
:102C4000CA0000202DE9F0410746884615461E4679
:102C50000024FFF771FF3846FFF73CFFFFF7B8FF8E
:102C60004046FFF737FFFFF7B3FFFFF765FF791C1B
:102C7000C8B2FFF72FFFFFF7ABFF00BF0DE0681EE4
:102C8000A04204D00120FFF7EFFE305503E0002002
:102C9000FFF7EAFE3055601C84B2AC42EFDBFFF771
:102CA00071FFE0B2BDE8F08137B504460D4602ABD6
:102CB00001222946204600F001F83EBD2DE9F041F1
:102CC00080460D4616461F460024FFF735FF404656
:102CD000FFF700FFFFF77CFF2846FFF7FBFEFFF73B
:102CE00077FF00BF06E0385DFFF7F4FEFFF770FFE7
:102CF000601C84B2B442F6DBFFF744FF0120BDE85C
:102D0000F081000000B52DED108B9BB0F0EE40AAD5
:102D1000B0EE60BAF0EE41BAB0EE61DAB0EE42CA9F
:102D2000F0EE62CAB0EE43AAB0EE639AF0EE449AB7
:102D3000FE4890ED000AD0ED000A20EE200A8DED4D
:102D40000B0A90ED000AFA48D0ED000A20EE200AA6
:102D50008DED0A0AF54890ED000AF648D0ED000A1C
:102D600020EE200AF0EE40EAF04890ED000AF2482A
:102D7000D0ED000A20EE200A8DED090AEC4890ED16
:102D8000000AD0ED000A20EE200A8DED080A90ED31
:102D9000000AE848D0ED000A20EE200A8DED070A6F
:102DA000E34890ED000AE448D0ED000A20EE200A46
:102DB000B0EE40FADF4890ED000AD0ED000A20EEB8
:102DC000200A8DED060A90ED000ADB48D0ED000ADE
:102DD00020EE200A8DED050A90ED000AD0ED000AE4
:102DE00020EE200A8DED040AD4480068D44908601A
:102DF00008460068D3490968884210D2D148006863
:102E00004FF6FF71081ACE490968084400EE100A0F
:102E1000B8EE400ADFEDCC0AC0EE208A0CE0C848CC
:102E20000068C8490968401A00EE100AB8EE400A66
:102E3000DFEDC50AC0EE208AC1480068C1490860BC
:102E400018EE900A0CF01CF941EC100BBF4880ED15
:102E5000000B6DEE0D0A4CEE0C0A4CEEAC0AB0EE17
:102E6000600A0AF065FFB0EE408A2DEE080AB0EE67
:102E700040DA2CEE080AB0EE40CA2CEE880AF0EEDA
:102E800040CA6AEE0A0A49EE090A49EEA90AB0EEFA
:102E9000600A0AF04DFFB0EE408A2AEE080AB0EE52
:102EA00040AA29EE080AB0EE409A29EE880AF0EE10
:102EB000409AB0EE000A6AEE000A9DED060AB6EEF0
:102EC000001A31EE401A9DED040A31EE400A20EE60
:102ED000800AF0EE000A69EE201ADDED070A9DED8A
:102EE000091A70EEC10A01EEA00AF0EE000A69EEBE
:102EF000A00A3FEE2E1A00EE810A8DED1A0AB0EEFE
:102F0000000A2AEE001A9DED070ADDED090A30EEEF
:102F1000200A21EE000AF0EE000A29EE201ADDED6B
:102F2000080AF6EE001A71EEE01ADDED040A71EE01
:102F3000E00A01EE200AF0EE000A69EEA01ADDEDCB
:102F4000050A9DED0A1A70EEC10A01EEA00A8DED88
:102F5000190AB0EE000A2AEE000A7FEE6E0A20EE91
:102F6000200AF0EE000A69EE201ADDED050A9DED5B
:102F70000A1A70EE810A01EEA00AF0EE000A29EEAC
:102F8000A01ADDED080AF6EE001A71EEE01ADDED8A
:102F9000060A71EEE00AF0EE40DA41EE20DA9DED2D
:102FA0001A0A60EE000A9DED190A40EE000A10EEC2
:102FB000901A08460CF064F8CDE900019DED000B75
:102FC00009F0BAFC8DED020B9DED020B51EC100BDC
:102FD0000BF0C6FA0FEE900AB0EE6DEA3FEE6E0A05
:102FE000F0EE000A20EE200A8DED180A9DED0A0A87
:102FF000DDED050A30EE200AF0EE000A20EE200A90
:103000008DED170A9DED0B0ADDED080A70EE600AE2
:103010009DED060A70EEC00A9DED040A30EE800AAE
:103020008DED160AB0EE000A6FEE800A9DED060ADD
:10303000B6EE001A31EE401A9DED040A31EE400A58
:1030400020EE800AF0EE4EDAF0EE000A6DEEA00AF5
:103050003FEE6E1A00EE810A8DED150AB0EE000A01
:103060002FEE801A9DED070ADDED090A30EE600AA9
:1030700021EE000AF0EE4EDAF0EE000A6DEEA01A34
:10308000DDED0A0A9DED051A70EE810A01EEA00A37
:103090008DED140AB0EE000A2FEE800A7EEE8F0A44
:1030A00020EE200AF0EE4EDAF0EE000A2DEEA01A25
:1030B000DDED080AF6EE001A71EEE01ADDED060A03
:1030C00071EEE00A01EE200A8DED130A9DED160A5D
:1030D0006CEE000A9DED170A4CEEC00A9DED130A36
:1030E00029EE001A9DED140A09EEC01A30EE810A8D
:1030F0008DED120A9DED180A6CEE800A9DED160A00
:103100004DEE400A9DED150A29EE801A9DED130A39
:103110000AEE401A30EE810A8DED110A9DED170A74
:103120006DEE000A9DED180A12E000005C0100201F
:10313000600100206401002068010020240C004090
:1031400094010020900100200024F449880100200F
:103150004CEE400A9DED140A2AEE001A9DED150A68
:1031600009EE401A30EE810A8DED100A9DED120A2B
:10317000B5EEC00AF1EE10FA61D09DED110AB5EE80
:10318000C00AF1EE10FA5AD09DED100AB5EEC00A51
:10319000F1EE10FA53D09DED120ADFED740A60EEE5
:1031A000200A734890ED000A00EEA80A80ED000A9C
:1031B0009DED110ADFED6D0A60EE200A6D4890ED7D
:1031C000000A00EEA80A80ED000A9DED100ADFED6E
:1031D000670A60EE200A684890ED000A00EEA80A2F
:1031E00080ED000A9DED120AB0EE001AF0EE6A0AB8
:1031F00041EE000A5E4890ED000A30EE800AF0EEE3
:1032000040AA9DED110AB0EE001AF0EE4B0A41EE15
:10321000000A584890ED000A30EE800AB0EE40BA3D
:103220009DED100AB0EE001AF0EE6B0A41EE000AB6
:10323000514890ED000A30EE800AF0EE40BA4F4857
:1032400090ED000AB1EE400A20EE2A0A4C48D0ED7B
:10325000000A00EECB0A4B4890ED001AF0EE400A4F
:1032600041EE6B0A484890ED000A00EEA80A8DED89
:103270000F0A90ED000A20EE2A0A4148D0ED000A1C
:1032800000EEAB0A3F4890ED001AF0EE400A41EE26
:103290004B0A3A4890ED000A00EEA80A8DED0E0A9E
:1032A000394890ED000A20EE0B0A3448D0ED000AB0
:1032B00000EEEB0A334890ED001AF0EE400A41EEC2
:1032C0002A0A2F4890ED000A00EEA80A8DED0D0A9B
:1032D0002D4890ED000A20EE2B0A2848D0ED000A78
:1032E00000EE8B0A264890ED001AF0EE400A41EEFF
:1032F0006A0A244890ED000A00EEA80A8DED0C0A37
:10330000DDED0F0A20EEA01ADDED0E0A00EEA01A88
:10331000DDED0D0A00EEA01ADDED0C0A00EEA01A9C
:10332000B0EE410A0AF004FDB0EE408A9DED0F0AAE
:1033300020EE080A144880ED000A9DED0E0A20EEEA
:10334000080A0E4880ED000A9DED0D0A20EE080ADD
:103350000B4880ED000A9DED0C0A20EE080A094892
:1033600080ED000A1BB0BDEC108B00BD0AD7233CDA
:1033700044010020480100204C0100206001002091
:1033800064010020680100205C01002010B52DEDD3
:10339000048B04464B4800F0A3F84A4890ED050A18
:1033A000DFED490A20EE200ADFED480A80EE201A00
:1033B000B0EE418A90ED040ADFED430A20EE200AC8
:1033C000DFED420A80EE201AF0EE418A90ED030A0A
:1033D000DFED3D0A20EE200ADFED3C0A80EE201AE8
:1033E000B0EE419A90ED080AB0EE404A90ED070A1F
:1033F000F0EE403A90ED060AB0EE403A90ED020A47
:10340000F0EE402A90ED010AB0EE402A90ED000A5D
:10341000F0EE401AB0EE481AF0EE680AB0EE490A33
:10342000FFF770FC274890ED050ADFED270A20EE34
:10343000200ADFED260A80EE201AB0EE418A90EDD8
:10344000040ADFED210A20EE200ADFED200A80EEDB
:10345000201AF0EE418A90ED030ADFED1B0A20EE00
:10346000200ADFED1A0A80EE201AB0EE419A90EDA4
:10347000020AF0EE402A90ED010AB0EE402A90EDEB
:10348000000AF0EE401AB0EE481AF0EE680AB0EE0C
:10349000490AFEF769FE0E4890ED000A84ED000A25
:1034A0000C4890ED000A84ED010A0B4890ED000AEB
:1034B00084ED020A094890ED000A84ED030ABDEC90
:1034C000048B10BD7C070020DB0F49400000344313
:1034D00074010020780100207C0100208001002080
:1034E00030B585B005466846FDF732FC00241BE088
:1034F000032C0ADA3DF9140000EE100AB8EEC00AF7
:1035000005EB840080ED000A0DE03DF9140000EEAB
:10351000100AB8EEC00ADFED080A80EE201A05EBAB
:10352000840080ED001A641C062CE1DB05F1180014
:1035300001F054FC05B030BD3333834110B52DED9F
:103540000E8B84B004466846FFF720FF9DED010A0C
:10355000F8EE000A20EE200ADDED030A20EE200A34
:10356000DDED000AB0EE001A60EE810A9DED021A50
:1035700000EE810A10EE101A08460BF081FD41ECB6
:103580001D0BB0EE4D0AF0EE6D0A07F0A5FFB0EE90
:1035900040CAF0EE60CA51EC1C0B0AF0D4FF41ECBB
:1035A0001B0B9FED7C0B53EC102B0BF073FA41ECD3
:1035B0001A0B9FED7A0B53EC102B0BF0BFF841EC7C
:1035C000190B0AF0CDFF60609DED010AF8EE000ACC
:1035D00020EE200ADDED010A20EE200ADDED020AD0
:1035E000B0EE001A60EE810A9DED021A00EEC10AEB
:1035F000F7EE000A30EE200A10EE101A08460BF023
:103600003FFD41EC1C0B9DED020AF0EE000A20EE9E
:10361000200ADDED030A20EE200ADDED000AB0EEFF
:10362000001A60EE810A9DED011A00EE810A10EE8B
:10363000101A08460BF024FD41EC1D0BB0EE4C1A9D
:10364000F0EE6C1AB0EE4D0AF0EE6D0A08F060FA7A
:10365000B0EE40BAF0EE60BA9FED4E0B53EC102B7B
:1036600051EC1B0B0BF016FA41EC1A0B9FED4B0BB8
:1036700053EC102B0BF062F841EC190B0AF070FFC1
:10368000A060484890ED000AF8EE000A20EE200AFB
:10369000D0ED000A20EE200A4348D0ED000AB0EE3B
:1036A000001A60EE810A90ED001A00EEC10AF7EEF2
:1036B000000A30EE200A10EE101A08460BF0E0FC6B
:1036C00041EC1D0B394890ED000AF0EE000A20EEA7
:1036D000200A3448D0ED000A20EE200A3448D0ED0C
:1036E000000AB0EE001A60EE810A2F4890ED001A31
:1036F00000EE810A10EE101A08460BF0C1FC41ECF6
:103700001E0BB0EE4D1AF0EE6D1AB0EE4E0AF0EE52
:103710006E0A08F0FDF9B0EE40CAF0EE60CA51EC56
:103720001C0B0AF010FF41EC1B0B9FED1A0B53EC26
:10373000102B0BF0AFF941EC1A0B9FED180B53EC6B
:10374000102B0AF0FBFF41EC190B0AF009FF08EE01
:10375000100AB5EEC08AF1EE10FA06D29FED150AF6
:1037600038EE000A84ED000A01E084ED008A94ED51
:10377000000A114880ED000A94ED010A0F4880ED1F
:10378000000A94ED020A0E4880ED000A04B0BDEC78
:103790000E8B10BD0000000000806640000000603D
:1037A000FB21094064010020680100206001002025
:1037B0005C0100200000B4434001002038010020DB
:1037C0003C01002010B5FDF74DFA322009F070FBE6
:1037D00001F00CFAFDF746FA322009F069FB01F01E
:1037E00005FAFDF73FFA0A2009F062FB01F0FEF945
:1037F0000A2009F05DFB01F0F9F90A2009F058FBF5
:1038000001F0F4F90A2009F053FB01F0EFF9274821
:103810000068274908600846006826490860B7EE36
:10382000000A254880ED000A9FED240A244880ED17
:10383000000A9FED220A234880ED000A9FED1F0A2F
:10384000214880ED000AB7EE000A204880ED000A0A
:103850009FED1A0A1E4880ED000A9FED180A1D48C8
:1038600080ED000A9FED150A1B4880ED000A9FEDD0
:10387000130A1A4880ED000A9FED100A184880EDDF
:10388000000A9FED0E0A174880ED000A9FED0B0A13
:10389000154880ED000A9FED090A144880ED000AE2
:1038A0009FED060A124880ED000A10BD240C00406E
:1038B00094010020900100205C0100200000000025
:1038C00060010020640100206801002074010020D4
:1038D000780100207C0100208001002044010020AC
:1038E000480100204C01002050010020540100201C
:1038F000580100201CB50121072001F0BDFB2B4819
:1039000000682B490840294908600846006840F4CF
:103910004C3008604815009001208DF804008DF8A7
:10392000050000208DF806008DF8070069461F4845
:103930002038FEF701FF4FF400711C482038FEF7D5
:103940006FFF0220009069461A48FEF7F5FE082036
:10395000009000208DF8040001208DF807006946D2
:103960001448FEF7E9FE0120009069461248FEF770
:10397000E3FE4FF48070009069460C482038FEF753
:10398000DBFE4FF480600090694608482038FEF75F
:10399000D3FE0521FA2000F011F840210548FEF77A
:1039A00041FF02210348FEF73DFF1CBD20040240F9
:1039B000FF0F00FF000802400000024030B58BB04E
:1039C00004460D460121022001F096FB012104204E
:1039D00001F052FB4020099002208DF828008DF85C
:1039E000290000208DF82A0001208DF82B0009A95C
:1039F0002148FEF7A1FE032206211F48FEF7E4FE40
:103A0000A8B2ADF818000020ADF81A0007944FF4E2
:103A10000070ADF8200006A9184804F00FFC6020E3
:103A2000ADF804000120ADF806000020ADF810004C
:103A30001420039001A9114804F016FB0020ADF8F2
:103A4000060001A90D4804F057FB01A90B4804F03A
:103A5000A5FB0821094804F045FB0121074804F0B3
:103A6000D3FA0121054804F0DBFA0121034804F0F0
:103A7000E3FA0BB030BD0000000802400004014032
:103A80001048006840F008000E49086080200E4988
:103A900008800020091D08800B4924310860401E61
:103AA00009492C3108605320091F0880012006496C
:103AB000143108800448008840F001000249088061
:103AC0007047000040380240000C004010B596B02E
:103AD00004460121084601F0CFFA0121102001F02F
:103AE0000BFB4FF40070149002208DF855008DF8F8
:103AF000540000208DF8560001208DF8570014A9BD
:103B00003B48FEF719FE4FF48060149001208DF8B9
:103B1000560000208DF8570014A93548FEF70CFE1A
:103B2000072209213248FEF74FFE07220A213048BA
:103B3000FEF74AFE2F4805F02FFB10940020ADF849
:103B40004400ADF84600ADF84800ADF84C000C203C
:103B5000ADF84A0010A9274805F0E6FB012240F223
:103B60002551244805F0BAFB0121224805F0FFFA4F
:103B70000121880501F080FA1F48FEF707F84FF091
:103B8000006001901B48001D02901C4803904020DB
:103B900004900020059006904FF48060079000206C
:103BA000089009900A904FF440300B9000200C9040
:103BB00003200D9000200E900F9001A90E48FEF7F3
:103BC000F7F8012210210C48FEF7D4F801228021D9
:103BD000084805F0D8FA00F070FE6B462822322122
:103BE000064800F0E3FE0649086016B010BD00006C
:103BF0000000024000100140B8640240D42F0020B1
:103C0000B005002010B596B004460121084601F029
:103C100033FA0121480401F04FFA042014900220E5
:103C20008DF855008DF8540000208DF856000120C5
:103C30008DF8570014A93B48FEF77EFD082014902C
:103C400001208DF8560000208DF8570014A9354842
:103C5000FEF772FD072202213248FEF7B5FD07226A
:103C600003213048FEF7B0FD2F4805F095FA109477
:103C70000020ADF84400ADF84600ADF84800ADF8BE
:103C80004C000C20ADF84A0010A9274805F04CFB69
:103C9000012240F22551244805F020FB0121224851
:103CA00005F065FA0121480501F0E6F91F48FDF726
:103CB0006DFF4FF0006001901B48001D02901C48F2
:103CC0000390402004900020059006904FF48060FF
:103CD00007900020089009900A904FF440300B9014
:103CE00000200C9003200D9000200E900F9001A951
:103CF0000E48FEF75DF8012210210C48FEF73AF855
:103D000001228021084805F03EFA00F0B6FD6B461E
:103D100020221146064800F049FE0649086016B008
:103D200010BD00000000024000440040A0600240BE
:103D3000D4370020980500201CB5044600200190CF
:103D40000090224800880004214908600D20486046
:103D5000402088600020C8604FF4806008610846F9
:103D600001F044FF1B480068009002E01948006819
:103D70000090009800F045000028F7D0012001F0E5
:103D8000E9FE20B1012001F0B7FE01201CBD042096
:103D900001F0E0FE20B1042001F0AEFE0320F5E7C3
:103DA0000C48243800680D2801D01020EEE740F2BE
:103DB000FF5001F0A1FE07482038006801900198EB
:103DC000C0F3432020700020E0E7000058020020EC
:103DD00000150020342C014000B5FEF725FDB0F59C
:103DE000B47F0ADA07480068401C064908600846A4
:103DF00000680A2804DD012000BD00200149086098
:103E00000020F9E79C01002008480949097850F88A
:103E100021000849086006480078401CC0B20449E7
:103E20000870282801D10020087070471000002079
:103E3000B0000020340401400848007830B1C820A8
:103E40000749086000200549087005E00020044982
:103E5000086001200149087070470000C40000207C
:103E60003404014010B500F0D7F80149086010BDD6
:103E7000D800002016490968164A116011460968E1
:103E8000154A1268891A00EE901AF8EE600A9FED42
:103E9000131AC0EE811A1249C1ED001A0D490968C2
:103EA0000D4A116001200CE00E4901EB8001D1EDBB
:103EB000000A411E0B4A02EB8101C1ED000A411CC0
:103EC00008B20A28F0DB074981ED090A70470000B3
:103ED000240C00402C0100202801002000247449FB
:103EE000E80000202006002016490978B9B9002012
:103EF00005E0154901EB800181ED000A401C0A280C
:103F0000F7DB12490978491C0A2291FBF2F302FB04
:103F100013110E4A117001210A4A117070470A49A3
:103F20000A4A127801EB820181ED000A07490978FB
:103F3000491C0A2291FBF2F302FB1311034A117090
:103F400000BFEBE71E010020F80500201D01002046
:103F500016490978B9B9002005E0154901EB80013F
:103F600081ED000A401C0A28F7DB12490978491C38
:103F70000A2291FBF2F302FB13110E4A1170012188
:103F80000A4A117070470A490A4A127801EB820105
:103F900081ED000A07490978491C0A2291FBF2F3D6
:103FA00002FB1311034A117000BFEBE71F01002051
:103FB000D00500201C010020054890ED000A0548AE
:103FC00080ED000A9FED040A044880ED000A704766
:103FD000F00000202001002000000000E000002090
:103FE00002469FED0C0AF0EE400A002008E002EBCA
:103FF000800393ED000A30EE200AF0EE400A401CE8
:104000008842F4DB00EE101AB8EEC01A80EE810A86
:10401000704700000000000038B50024FEF78CFD5A
:10402000EE20FEF757FDFEF7D3FD0020FEF752FD10
:10403000FEF7CEFDFEF7A6FDFEF77EFDEF20FEF7B4
:1040400049FDFEF7C5FD0120FEF70EFD8DF80000CD
:104050000120FEF709FD8DF801000020FEF704FDA8
:104060008DF80200FEF78EFD9DF8000001049DF81A
:10407000010001EB00209DF802104418204638BDD5
:104080002DE9F04F2DED028B8FB0FFF7C5FF824673
:104090008948008989490968A1EB0020C5170446B1
:1040A000854840890021A0FB04B301FB043100FBDB
:1040B00005114FF4000200235846FCF7F9F84FF4BD
:1040C000FA63C61841F100077B48418800200004CC
:1040D00040EA11400A047849C9880023A1FB04CBB7
:1040E00003FB04B301FB05334FEADC1141EA4361F2
:1040F000511840EBE312CDE90C126F4801884FF0E4
:1041000000004FEAC03040EA51404FEAC1326A49EC
:1041100089884FF00003A1FB04CB03FB04B301FB30
:1041200005334FEA1C2141EA0361511840EB232279
:10413000CDE90A124FF4FA61711A77F100004EDAF4
:10414000A4FB040105FB041104FB0511C00F40EAA8
:104150004100C917CDE908014FF4FA62B11A67F1BD
:104160000000A1FB018200FB012201FB00290521C7
:104170000020A8FB012309FB013108FB00104010BF
:104180004FEA3201CDE906104FF005014FF0000073
:10419000A8FB012309FB013108FB00114FEA920043
:1041A00040EA81704FEAA101CDE90401DDE908018F
:1041B000361A67EB0107DDE90CC2DDE90610BCEB3E
:1041C000010162EB0002CDE90C12DDE90AC2DDE972
:1041D0000401BCEB000062EB0102CDE90A024FEAE8
:1041E000EA72DDE90A01AAFB003C02FB00C00AFBFF
:1041F0000101580D40EAC12C4815DDE90C12BCEB59
:10420000010160EB02004FF400420023CDE90010F1
:1042100008460199FCF74CF8CDE902010AF05EFF6F
:1042200008EE900AB0EE680AFFF75EFE0A21244805
:10423000FFF7D6FE234880ED000A90ED000A2248E1
:10424000D0ED000A70EE600A90ED000A9FED1F1A93
:1042500000EE810A80ED000A304639460AF03EFF42
:1042600008EE900AB0EE680AFFF772FE0A211848BD
:10427000FFF7B6FE174880ED000A00F033F8B0EE05
:10428000408A154890ED000ADFED140A30EE200A4E
:1042900090ED001AC1EE000A114890ED000A38EEC8
:1042A000401A90ED000A00EE810A80ED000A0FB07E
:1042B000BDEC028BBDE8F08FC4050020D8000020C3
:1042C000F8050020F0000020E4000020CDCCCC3D1B
:1042D000D0050020EC000020E80000200361023C33
:1042E000F400002010B52DED088B384890ED000A41
:1042F000B5EEC00AF1EE10FA1DD13548017800780C
:10430000401C334A1070322905DB324890ED000A18
:104310002E4880ED000A2F4890ED000A2E4880EDCF
:10432000000A9FED2E0A2E4880ED000A90ED000A4B
:10433000BDEC088B10BD274890ED000A2348D0ED56
:10434000000A80EE201A11EE104A20460AF098FE6C
:1043500041EC1B0B9FED231BB0EE4B0AF0EE6B0AFA
:1043600007F0CEFCB0EE40AAF0EE60AA9FED1F0B66
:1043700053EC102B51EC1A0B0AF0C0FC41EC190B5A
:104380009FED1C0B53EC102B0AF084FB41EC180B37
:104390000AF0E6F812490860084690ED000A17484E
:1043A000D0ED000A30EE200A084680ED000A90EDBC
:1043B000000AFFF75FFD0A211148FFF711FE0848C8
:1043C00080ED000A90ED000AB2E700002001002015
:1043D00024010020F0000020E40000200000000084
:1043E00030010020EBE2361AC05BC83F000000003D
:1043F0000000F03F000000001AE95041E0000020FA
:104400002006002010B500F041F8642008F050FDAF
:1044100000F002F810BD000070B5002430E0FEF797
:104420008BFBEE20FEF756FBFEF7D2FBA22101EB41
:104430004401C8B2FEF74EFBFEF7CAFBFEF7A2FB33
:10444000052008F053FDFEF777FBEF20FEF742FB57
:10445000012008F04BFDFEF7BBFB0120FEF704FB3B
:104460000546012008F042FD0020FEF7FDFA064651
:10447000FEF788FB46EA0520034921F81400641C76
:10448000062CCCDB70BD0000C405002010B5FEF783
:1044900053FBEE20FEF71EFBFEF79AFB1E20FEF7F5
:1044A00019FBFEF795FBFEF76DFB10BD10B504463A
:1044B000FEF742FBEE20FEF70DFBFEF789FB2046E0
:1044C000FEF708FBFEF784FBFEF75CFB10BD000067
:1044D00010B527480078012806D0022813D00328F9
:1044E00020D004283ED12CE05820FFF7DFFF2148E0
:1044F000006A2149086021480068214908600220BB
:104500001B49087032E01D4800681D490968401ABF
:1045100019490968884204D9FFF7A4FC032014490B
:10452000087023E04820FFF7C1FF1248006A1249D3
:104530000860124800681249086004200C4908709D
:1045400014E00E4800680E490968401A0A490968D3
:10455000884206D9FFF794FD01200A4908700449F2
:10456000087003E001200249087000BF00BF10BDC1
:10457000CC000020F8000020D0000020240C0040D7
:10458000D4000020DC00002010B504460D48007B5C
:1045900048B90C48806830B10B48007818B901213F
:1045A0002046FCF7BAFE81212046FCF7B6FE0648FD
:1045B0000078022805D11F23024A01212046FCF77A
:1045C00075FE10BDE8270020A904002010B50446A0
:1045D0002B4840682B494860294880688860012141
:1045E000204605F022F91F2810D1254800682649E9
:1045F00088420BD12248407B012807DC2048807B81
:10460000012803DB1E48807B10280CDD1C49487BF9
:104610002022052101F00AF902201C4908702046D9
:10462000FFF7B2FF2AE01648417B00F10F02204657
:1046300000F080FE002803DA2046FFF7A5FF1DE00A
:1046400013480078022819D011480078012815D0A5
:104650000F480078032811D00E480088002806DD96
:104660000C4802880C49204600F0E0F806E00948B2
:10467000008818B90021204600F0B8F810BD0000ED
:10468000E82700200828002055534243A9040020B1
:10469000A8040020A6040020E817002070B50546F5
:1046A0000C460C480078022807D181212846FCF7E7
:1046B00034FE0020074908700BE004F080008028D9
:1046C00007D104480078012803D00121284600F0D2
:1046D0008DF870BDA904002070B504460D46104841
:1046E0000078022804D0032811D0042814D10DE04A
:1046F0000C48417B00F10F02204600F01BFE002811
:1047000003DA0121204600F071F806E000BF002125
:10471000204600F06BF800E000BF00BF70BD000055
:10472000A8040020E827002070B504460D460D4877
:10473000007810B1012812D103E02046FFF746FFB0
:104740000EE00948417B00F10F02204600F0F2FD27
:10475000002803DA0121204600F048F800E000BFFD
:1047600000BF70BDA8040020E82700200021014AF6
:1047700011707047A804002010B5044600200C49B1
:1047800008700C4908700C480068016800208847D0
:1047900001212046FCF744FD81212046FCF740FD25
:1047A0001F23064A01212046FCF780FD10BD0000B2
:1047B000A8040020A904002074050020E827002098
:1047C00010B504460020064908700120054908700C
:1047D0001F23054A01212046FCF768FD10BD00009B
:1047E000A8040020A9040020E827002070B5054691
:1047F0000C460A480A490860084604730020094923
:1048000008700D23064A81212846FCF7AAFD1F23C4
:10481000054A01212846FCF749FD70BD5553425316
:1048200008280020A8040020E827002070B50646CC
:104830000D4614460C488068A04202D20A4880689F
:1048400000E0204684B209488068001B0749886060
:104850000020087304200649087023462A46812157
:104860003046FCF77EFD70BDE827002008280020B8
:10487000A804002000BFFEE7704708B526208DF889
:10488000000000208DF8010007208DF802000120B3
:104890008DF80300684600F02FF811208DF8000015
:1048A00000208DF8010008208DF8020001208DF80D
:1048B0000300684600F020F808BD08B525208DF8F3
:1048C000000000208DF8010007208DF80200012073
:1048D0008DF80300684600F00FF846208DF80000C0
:1048E00000208DF8010001208DF802008DF80300F2
:1048F000684600F001F808BD70B5002100230F22C2
:10490000C4781CB3174C246804F4E064C4F5E06474
:10491000C4F30721C1F10404E3B20A4144789C4086
:10492000E1B28478144021430C07210E0E4C057827
:104930006155047804F01F050124AC4005786D1121
:10494000AD0005F1E025C5F8004109E0047804F068
:104950001F050124AC40054D0678761145F8264028
:1049600070BD00000CED00E000E400E080E100E03C
:1049700002490143024A1160704700000000FA0535
:104980000CED00E010B50848C08B401C0649C883F8
:104990000846C08B42F20F71884202DD01200249B5
:1049A000C88306F06BFD10BD480600202DE9F04FCE
:1049B00007460D461646994607EB0508BA460024F9
:1049C000A34601E0601C84B2184850F8340008B1D6
:1049D000082CF7DD082C05DBFF2089F800000020FB
:1049E000BDE8F08F114840F8347000EBC400057149
:1049F0000E4800EBC40046710C4800EBC400867101
:104A0000A34605FB06F1384600F036F8002405E021
:104A1000CAF80080C246A844601C84B2701EA0423E
:104A2000F6DC024800EBCB00DAE70000942F002010
:104A3000024609B9FF207047091F0B46106818602D
:104A400013609079401C90710020F4E710B5024685
:104A50001368907918B9FF200870002010BD907974
:104A6000401E9071907908B1186810601C46241D92
:104A7000002008702046F1E702460B46002103E0C3
:104A800000205054481C81B29942F9DB10787047DD
:104A900010B5024805F02AF810BD000038280020A3
:104AA0007047000010B54648B0F900004549B1F91B
:104AB0000010884200D110BD4348B0F900004349BE
:104AC000B1F90010884200D1F5E74148B0F9000083
:104AD0004049B1F90010884200D1ECE73849B1F9FA
:104AE0000010384AB2F90020881800EBD071491044
:104AF00009B2394A11833449B1F90010334AB2F985
:104B00000020881800EBD071491009B2324A518355
:104B10002F49B1F900102F4AB2F90020881800EB94
:104B2000D071491009B22C4A9183B7EE000A2B4884
:104B300080ED000A104680ED030A2148B0F900001C
:104B40002049B1F90010401A00EE100AF8EEC00A30
:104B50001D48B0F900001D49B1F90010401A00EEDF
:104B6000100AB8EEC00A80EE801A1D4880ED001AC7
:104B7000104680ED041A1248B0F900001149B1F94D
:104B80000010401A00EE100AF8EEC00A1048B0F902
:104B900000001049B1F90010401A00EE100AB8EEFA
:104BA000C00A80EE801A0F4880ED001A104680ED92
:104BB000051A06F063FC00200B49087000BF7AE775
:104BC000DC010020E2010020DE010020E4010020E1
:104BD000E0010020E601002048060020F00100204E
:104BE000F4010020F8010020E801002010B50020A9
:104BF00000F0DAF800F074F810BD0000012014494C
:104C0000087048F27010134908801349088013494E
:104C1000088047F6906012490880124908801249BE
:104C20000880B7EE000A114880ED000AB7EE000ACE
:104C30000F4880ED000AB7EE000A0E4880ED000A2A
:104C400000200D4908800D4908800D4908807047F3
:104C5000E8010020DC010020DE010020E00100204E
:104C6000E2010020E4010020E6010020F001002024
:104C7000F4010020F8010020EA010020EC010020EE
:104C8000EE0100200F48008B0F4908800D48408B33
:104C90000E4908800B48808B0D490880094890ED2B
:104CA000030A0C4880ED000A064890ED040A0A4801
:104CB00080ED000A034890ED050A084880ED000ADF
:104CC0007047000048060020EA010020EC010020A7
:104CD000EE010020F0010020F4010020F801002086
:104CE0001CB5002409E001AA911E684600F008F8EE
:104CF000C82008F0FBF8601CC4B2322CF3DB1CBDEA
:104D00002DE9FC4104460D461646642700208DF827
:104D100005008DF804008DF803008DF802008DF871
:104D200001008DF8000006211A20FDF713FE00F0A7
:104D3000010028B16B46062200211A20FDF782FFF0
:104D40009DF804309DF805C043EA0C231AB29DF883
:104D500002309DF803C043EA0C2319B29DF80030DD
:104D60009DF801C043EA0C2318B200F0BBF80648D6
:104D7000808A20800448408D28800348B0F8400095
:104D80003080BDE8FC8100002C080020054B9B8A88
:104D90000380044B5B8D0B80024BB3F840301380D3
:104DA000704700002C08002010B50446D9210920C6
:104DB00000F058F900210A2000F054F901210B20DD
:104DC00000F050F94021202000F04CF90121212071
:104DD00000F048F9FFF756FF10BD00003EB504464D
:104DE000354805683548006850B13448006841F2DC
:104DF00094110844A84203D330480068A84207D958
:104E00006A4601A902A8FFF77BFF2C48056004E071
:104E10006A4601A902A8FFF7B9FFBDF908002849B1
:104E2000B1F90010401A00EE100AB8EEC00A254889
:104E3000D0ED000A20EE200A84ED000ABDF904003E
:104E40002149B1F90010401A00EE100AB8EEC00A6C
:104E50001E48D0ED000A20EE200A84ED010ABDF9BB
:104E600000001B49B1F90010401A00EE100AB8EE1C
:104E7000C00A1848D0ED000A20EE200A84ED020A8C
:104E800094ED000ABDEEC00A10EE100A00B21249FD
:104E9000088094ED010ABDEEC00A10EE100A00B2BF
:104EA0000E49088094ED020ABDEEC00A10EE100A09
:104EB00000B20B4908803EBD240C004008020020CF
:104EC000EA010020F0010020EC010020F4010020A4
:104ED000EE010020F8010020FC010020FE0100206E
:104EE00000020020F0B503460C460021012019E025
:104EF000544D35F81060451E524F27F8156007F1E4
:104F0000160535F81070451E4E4E163626F81570EB
:104F100006F1160535F81070451E163626F8157080
:104F2000451CE8B20A28E3DB464D6C825D422EB296
:104F3000444D2E85EA870021002005E0414D35F9DA
:104F400010502944451CE8B20A28F7DB0A2591FBDA
:104F5000F5F52DB23B4EB5820021002006E0394D1B
:104F6000163535F910502944451CE8B20A28F6DBFD
:104F70000A2591FBF5F52EB2324D6E8500210020F9
:104F800006E0304D2C3535F910502944451CE8B267
:104F90000A28F6DB0A2591FBF5F52EB2294DA5F876
:104FA0004060294D2D78EDB3264DB5F91450274EAC
:104FB000B6F90060B54203DA224DAD8A234E358042
:104FC000204DB5F92A50224EB6F90060B54203DAF9
:104FD0001C4D6D8D1E4E35801A4DB5F940501D4E3D
:104FE000B6F90060B54204DA164DB5F84050194ED6
:104FF0003580144DB5F91450174EB6F90060B5421E
:1050000003DD104DAD8A144E35800E4DB5F92A5092
:10501000124EB6F90060B54203DD0A4D6D8D0F4E9C
:10502000358000E00CE0074DB5F940500C4EB6F964
:105030000060B54204DD034DB5F84050084E3580A0
:10504000F0BD00002C080020E8010020E201002053
:10505000E4010020E6010020DC010020DE01002048
:10506000E001002070B504460D462A4621461A206C
:10507000FDF71AFE70BD000029B1064A126802430E
:10508000044B1A6004E0034A12688243014B1A6021
:10509000704700003038024029B1064A12680243C6
:1050A000044B1A6004E0034A12688243014B1A6001
:1050B000704700003438024029B1064A12680243A2
:1050C000044B1A6004E0034A12688243014B1A60E1
:1050D000704700004038024029B1064A1268024376
:1050E000044B1A6004E0034A12688243014B1A60C1
:1050F000704700002038024029B1064A1268024376
:10510000044B1A6004E0034A12688243014B1A60A0
:10511000704700004438024029B1064A1268024331
:10512000044B1A6004E0034A12688243014B1A6080
:105130007047000024380240F0B50021002200240E
:10514000022500260223324F3F6807F00C0121B1EF
:10515000042905D0082937D105E02E4F076036E035
:105160002D4F076033E02A4F3F1F3F68C7F380563B
:10517000274F3F1F3F6807F03F036EB1264FB7FB35
:10518000F3F7DFF88CC0ACF1040CDCF800C0CCF312
:10519000881C07FB0CF40CE01E4FB7FBF3F7DFF89D
:1051A00070C0ACF1040CDCF800C0CCF3881C07FB29
:1051B0000CF4174F3F1F3F68C7F301477F1C7D006A
:1051C000B4FBF5F7076002E0124F076000BF00BFB5
:1051D0000F4F3F6807F0F0010909104F7A5C07682C
:1051E000D74047600A4F3F6807F4E051890A0B4FE8
:1051F0007A5C4768D7408760054F3F6807F4604195
:10520000490B064F7A5C4768D740C760F0BD000085
:10521000083802400024F40000127A000000002048
:1052200070B5094B4FF480720021A020FDF70AFDF4
:10523000064D002404E00448005D28706D1C641CC9
:10524000342CF8D370BD00007C06002048060020F6
:1052500070B506460C46154660190749096888422C
:1052600007D921220521304600F0E0FA4FF0FF3047
:1052700070BD0020FCE700000405002030B50446A6
:105280000A46507800F0010010B10E4B07210CE0E7
:105290000D480068C06904EBC40500EB850318796C
:1052A000411D1079884200DC11790848018004E032
:1052B000481E81B2585C064D68540029F8D1002080
:1052C00030BD0000C6F2000874050020A6040020CE
:1052D000E817002010B502460B4608210648018059
:1052E00005E0481E81B20548405C054C6054002929
:1052F000F7D1002010BD0000A6040020D5F2000860
:10530000E817002010B502460B4608210648018028
:1053100005E0481E81B20548405C054C60540029F8
:10532000F7D1002010BD0000A6040020CDF2000837
:10533000E817002070B505460E4614463248056051
:10534000207823283ED00DDC1A2831D005DCB0B1FE
:10535000032819D012284ED11BE01B281ED01E286E
:1053600049D120E02A283CD004DC25282FD0282849
:1053700041D131E02F2839D05A283CD11DE02146B7
:10538000304600F079FA70BD2146304600F002FA4E
:10539000F9E721463046FFF771FFF4E72146304632
:1053A00000F062FAEFE72146304600F05DFAEAE7E6
:1053B00021463046FFF7A6FFE5E721463046FFF7D6
:1053C00089FFE0E72146304600F0A0F9DBE72146FF
:1053D000304600F055F9D6E72146304600F0D8F8BF
:1053E000D1E72146304600F097FACCE72146304617
:1053F00000F06AFAC7E720220521304600F016FACD
:105400004FF0FF30BFE70000100500202DE9F0410C
:10541000054624480068B0F5805F02D22148006844
:1054200001E04FF4805004461F480068B4FBF0F0E0
:1054300086B21E4800681C490968B0FBF1F71C4899
:10544000006833463A461B49D0F810C02846E0476A
:10545000002808DA11220421284600F0E7F94FF06D
:10546000FF30BDE8F0812346124A812112480068CE
:10547000FBF777FF0D48006820440C490860094895
:105480000068001B074908600C488068001B0B4936
:1054900088600448006810B903200949087000209A
:1054A000DFE700000C0500200005002008050020B3
:1054B00074050020E81700201005002008280020AF
:1054C000A80400202DE9F04105462A480068B0F5FF
:1054D000805F02D22748006801E04FF48050044604
:1054E00025480068B4FBF0F086B2244800682249E1
:1054F0000968B0FBF1F72248006833463A46214973
:10550000D0F814C02846E047002808DA0322042116
:10551000284600F08BF94FF0FF30BDE8F0811748C6
:10552000006820441549086012480068001B1149B2
:10553000086015488068001B134988600D480068A2
:1055400028B9002111480068FFF750F910E0094818
:105550000068B0F5805F02D20648006801E04FF4B1
:10556000805083B2074A012108480068FBF79EFE7D
:105570000020D2E70C0500200005002008050020CF
:1055800074050020E81700200828002010050020DE
:1055900070B505460C463348007800285AD1324889
:1055A000007B00F08000802808D02F49487B202213
:1055B000052100F03BF94FF0FF3070BD2B4800682B
:1055C00081682846884738B13A220221284600F0EF
:1055D0002DF94FF0FF30F0E7A0780006E17840EABF
:1055E0000140217940EA012061790843204908609F
:1055F000207AE17940EA01201E49086008460088C7
:1056000082B21B4801682846FFF722FE002802DA12
:105610004FF0FF30D1E702201249087014480068AB
:105620001549096848431249086012480068124940
:10563000096848430F4908600B4880680968884238
:1056400008D00949487B2022052100F0EFF84FF0EF
:10565000FF30B2E74FF48050084908802846FFF732
:10566000D5FEAAE7A8040020E82700207405002042
:10567000080500200C05002000050020A6040020DD
:1056800070B504460D461C4800681C4A1C49436816
:105690002046984738B13A220221204600F0C6F849
:1056A0004FF0FF3070BD16480068401E000E1549CF
:1056B000087013480068401E000C487010480088AD
:1056C000401E000A88700E480078401EC8700B48C3
:1056D0000068000E087109480068000C487107480E
:1056E0000088000A887105480078C87108200649BA
:1056F00008800020D6E70000740500200005002087
:1057000004050020E8170020A60400207CB505460B
:105710000E46002404E000201B490855601C84B29A
:105720000C2CF8DB1948006801AA69464368284632
:10573000984738B13A220221284600F077F84FF016
:10574000FF307CBD08201049C8700098401E000E34
:1057500008710098401E000C48710098401E000A15
:1057600088710098401EC871022008720198000CD0
:1057700048720198000A88720198C8720C20044986
:1057800008800020DDE70000E817002074050020F5
:10579000A604002010B50346002204E000201E4CA1
:1057A000A054501CC2B2122AF8DB70201A4C207090
:1057B0000C20E07119480078194C2478A04221D0BF
:1057C0001848164C247810F83400134CA070154873
:1057D000124C247800EBC40040790F4C2073114820
:1057E0000E4C247800EBC40000790B4C60730B481E
:1057F0000078401C094C207020460078042801D114
:10580000002020701220084C20800879122801DC2A
:1058100008792080002010BDE8170020FC0400203B
:10582000FD04002018280020A604002030B50C4BF1
:105830000C4C247803F834101302094C094D2D78D0
:1058400004EBC5046360074B1B785B1C054C23709D
:1058500023461B78042B01D10023237030BD0000A8
:1058600018280020FD04002002460020014B18806B
:1058700070470000A604002070B504460D460F488E
:10588000806840B10D49487B20220521FFF7CEFFFB
:105890004FF0FF3070BD0A48006881682046884795
:1058A00038B13A2202212046FFF7C0FF4FF0FF3007
:1058B000F0E700200349088000BFEBE7E82700205D
:1058C00074050020A604002070B505460C466078DB
:1058D00000F00200022807D1242205212846FFF704
:1058E000A5FF4FF0FF3070BD0848008882B208481D
:1058F00001682846FFF7ACFC002802DA4FF0FF30C1
:10590000F1E700200349088000BFECE70C05002008
:1059100008050020A604002070B505460C46434843
:10592000007800287BD14248007B00F0800080286E
:1059300008D13F49487B20220521FFF777FF4FF030
:10594000FF3070BD3B48006881682846884738B101
:105950003A2202212846FFF769FF4FF0FF30F0E7B7
:1059600034480068C1682846884738B12722022198
:105970002846FFF75BFF4FF0FF30E2E7A078000614
:10598000E17840EA0140217940EA01206179084349
:1059900029490860207AE17940EA01202749086016
:1059A0000846008882B2244801682846FFF750FC68
:1059B000002802DA4FF0FF30C3E71F480068204993
:1059C000096848431C4908601C4800681C4909686C
:1059D00048431A490860164880680968884208D018
:1059E0001349487B20220521FFF720FF4FF0FF30AD
:1059F000A7E701200D49087010480068B0F5805FE6
:105A000003D20E48006802E009E04FF4805083B2F0
:105A10000C4A01210C480068FBF748FC03E02846CB
:105A2000FFF750FD8DE700208BE70000A804002061
:105A3000E827002074050020080500200C05002040
:105A400000050020E8170020100500207CB5054661
:105A5000002400200090019000260DB1022600E0F5
:105A600000262248006800F0007008B10E207CBDBE
:105A70001F49098888B26946FCF7ACFA04460CB1A4
:105A80002046F4E7019800F4802060B318480088AD
:105A900000041849086037204860402088600020D2
:105AA000C8604FF480600861084600F09FF8372016
:105AB000FBF774FA04460CB12046D8E70D4806609F
:105AC00006200C494860402088600020C8604FF4E0
:105AD00080600861084600F089F80620FBF75EFA4E
